:020000040800F2
:1000000040060024AD0200083D310008AB2D000879
:10001000B12F00087D0E0008B93E00080000000066
:100020000000000000000000000000003533000860
:10003000A90E0008000000003F3100081D34000830
:10004000C7020008C7020008C7020008C70200086C
:10005000C7020008C7020008C7020008C70200085C
:10006000C7020008C7020008C7020008C70200084C
:10007000C7020008C7020008C7020008C70200083C
:10008000C7020008C7020008C7020008C70200082C
:10009000C7020008C7020008C7020008C70200081C
:1000A000C7020008C7020008C7020008C70200080C
:1000B000C7020008C7020008C7020008C7020008FC
:1000C000C7020008C7020008C7020008C7020008EC
:1000D000C7020008C7020008C7020008B13E0008B6
:1000E000C7020008C702000800000000C70200089D
:1000F000C7020008C7020008C7020008C7020008BC
:10010000C7020008C7020008C7020008C7020008AB
:10011000C7020008C7020008C7020008C70200089B
:10012000C7020008C7020008C7020008C70200088B
:10013000C7020008C7020008C7020008C70200087B
:1001400000000000000000000000000000000000AF
:10015000C7020008C7020008C7020008C70200085B
:10016000C7020008C7020008C7020008C70200084B
:10017000C7020008C7020008C7020008000000000C
:10018000C7020008C7020008C7020008C70200082B
:10019000C7020008C7020008C7020008C70200081B
:1001A000C7020008C7020008C7020008C70200080B
:1001B000C7020008C7020008C7020008C7020008FB
:1001C000C7020008C7020008C7020008C7020008EB
:1001D000C7020008C7020008C7020008C7020008DB
:1001E000C7020008C7020008C7020008C7020008CB
:1001F000C7020008C7020008C7020008C7020008BB
:10020000C7020008C7020008C7020008C7020008AA
:10021000C7020008C7020008C7020008C70200089A
:10022000C7020008C7020008C7020008000000005B
:10023000C7020008C702000800000000C70200084B
:10024000C7020008C7020008C7020008C70200086A
:10025000C7020008C7020008C7020008C70200085A
:10026000C7020008C7020008C7020008C70200084A
:10027000C7020008C7020008C7020008000000000B
:10028000C7020008C7020008C702000800000000FB
:1002900000000000C7020008DFF80CD000F098FB57
:1002A000004800470D3F00084006002406488047EC
:1002B00006480047FEE7FEE7FEE7FEE7FEE7FEE74B
:1002C000FEE7FEE7FEE7FEE7E134000899020008DA
:1002D0002DE9F05F0546002092469B46884606467B
:1002E000814640241BE0284641464746224600F00E
:1002F00020FA53465A46C01A914110D31146184667
:10030000224600F007FA2D1A67EB01084F462246F5
:100310000120002100F0FEF917EB00094E41201EDC
:10032000A4F10104DFDC484631462A464346BDE8D5
:10033000F09FD2B201E000F8012B491EFBD27047BA
:100340000022F6E710B513460A4604461946FFF7A1
:10035000F0FF204610BD421E12F8013F002BFBD1DA
:1003600011F8013B02F8013B002BF9D17047421C08
:1003700010F8011B0029FBD1801A70470FB400B59B
:100380008DB010A909900B9000914FF0FF300A90AA
:1003900000200C9005480690054807906A4609A879
:1003A0000F9900F0DDF90DB05DF814FB7D07000832
:1003B0009B0700082DE9FF4F087883B09946FF2876
:1003C00005D0491C2D2804D00024002008E000207E
:1003D0000BE00124F9E700EB800003EB4000491C2F
:1003E0000B78FF2BF7D104B140420023029314781D
:1003F00019461D462D2C01D02B2C04D1521C2D2C1E
:1004000013D000240294AA461478FF2C0FD00A259A
:10041000A3FB057801FB05814FF0000C03FB0C11D9
:10042000521CE3194AEB0101EEE70124EAE781449B
:1004300053EA010002D019F5C87F06DA03980021BB
:10044000C0E9001107B0BDE8F08F0025AE4E2F4681
:10045000DFF8B882184600F092FACDE90001B9F150
:10046000000002DAC9F1000400E004460023A74AB4
:100470001AEB030B42EB045A12E0E00707D02A46BE
:1004800033463846414600F099F9074688462A46E1
:1004900033461046194600F091F905460E466410A1
:1004A000002CEAD1DDE90001B9F1000F5A465346AC
:1004B00006DA00F0F5F93A46434600F0F1F905E0B6
:1004C00000F07CF93A46434600F078F9029A0AB106
:1004D00081F00041039AC2E90001B3E72DE9FF4F23
:1004E0001F468DB0D7E901464FF0FF382E20454614
:1004F0004FF000090B90B9696D1C0E988847396A56
:10050000824688470028F6D1BAF1FF3F0AD024F48A
:10051000D064002E11DDBAF12B0F08D0BAF12D0FE7
:100520000BD102E0404611B08DE744F48064B96914
:100530006D1C0E9888478246761E6946600501D577
:100540002D2000E02B208DF8000001F1010B0DF1B2
:10055000200809E0B9696D1C0E98884782460F98FB
:1005600044F40074761E0560002E02DDBAF1300FEF
:10057000F0D00B998A453ED144F0800406E00F99F3
:10058000681CA9F1010944F400740860B9696D1C84
:10059000761E0E98884782463028F0D02BE00B99C3
:1005A0008A4505D1200603D444F08004761E18E065
:1005B000504603F07CFE08B30DF11302761EAAF13B
:1005C000300044F40074934506D20BF8010B20066A
:1005D00007D5A9F1010003E0200602D409F10100CA
:1005E0008146A00502D50F99681C0860B9696D1C89
:1005F0000E9888478246002ED1DC53E0002E51DD54
:10060000BAF1650F02D0BAF1450F4BD1A00549D51B
:10061000B9696D1C24F44074761E0E988847824692
:10062000002E0CDD2B2804D0BAF12D0F07D144F495
:100630008074B9696D1C0E9888478246761EE00565
:1006400001D52D2100E02B2108F8011BCDF82C80CD
:1006500021E00DF12901761E44F4007488450CD286
:10066000AAF1300010F0FF0088F8000002D10B99C9
:10067000884509D908F1010806E0E00501D52448BC
:1006800001E042F20F708146B9696D1C0E988847EF
:1006900082460F980560002E04DD504603F007FEE9
:1006A0000028D6D1F9690E988847FF208BF8000002
:1006B00088F800000020069007904B466A4608A97B
:1006C00006A8FFF777FEA00502D46FF001002AE725
:1006D00014F0240F0AD0E00714D1DDE906123868BF
:1006E000031D3B600068C0E900120BE0DDE9060174
:1006F00000F051F90146E00704D13868021D3A6064
:100700000068016028460EE7000014400000F03F3A
:10071000F1D8FFFF202A04DB203A00FA02F1002082
:1007200070479140C2F1200320FA03F3194390402F
:100730007047202A04DB203A21FA02F0002170479A
:1007400021FA02F3D040C2F1200291400843194639
:100750007047000002681144137801601846704722
:10076000D1600449516104491162002111611146AF
:1007700000F046B955070008F5090008426842B183
:10078000016811F8013B23B1521EC0E9001218465E
:1007900070470121C160881E704742685AB1C36822
:1007A000016843B983688B4205D0491E521CC0E9D9
:1007B0000012002070474FF0FF3070472DE9FE4FC8
:1007C00081EA030404F0004421F0004100944FF05A
:1007D000000B23F0004350EA01045ED052EA030408
:1007E0005BD0C3F30A54C1F30A552C44A4F2F3348A
:1007F0000194A0FB0254C1F3130141F48011C3F32F
:10080000130343F4801301FB024400FB034E840AEC
:10081000970A44EA815447EA8357A4FB0768029584
:100820008D0A05FB07854FEA932C04FB0C54270522
:10083000029D4FEA065847EA1637B5EB08056EEBFE
:10084000070C870E920E47EA811742EA8312A7FB34
:100850000201B6EB0B0164EB00042B0D43EA0C33F1
:100860005E1844EB1C50DA465146E7FB0201C5F323
:1008700013044FEA0B3343EA14534FEA0432019C4A
:1008800043EA0603A4F10C040294009CCDE900B4F1
:1008900000F092FA03B0BDE8F08F00200146F9E7BE
:1008A0002DE9F04D81EA030404F0004B21F00045EE
:1008B00014464FF0000A23F0004150EA050220D010
:1008C00054EA01021DD0C5F30A570246C5F31303CB
:1008D000C1F31300C1F30A5640F4801543F48013AA
:1008E000A7EB0608101BD64608F2FD3873EB05008F
:1008F00002D308F1010801E092185B41B8F1000F42
:1009000003DA00200146BDE8F08D00204FF480118D
:10091000064684460EE0171B73EB050705D3121B32
:1009200063EB050306434CEA010C49084FEA30002B
:1009300092185B4150EA0107EDD152EA030012D050
:1009400082EA040083EA0501084305D0101BAB418D
:1009500006D20122002306E000224FF0004302E00D
:100960006FF0010253101AEB06004CEB085110EB2C
:100970000A0041EB0B01BDE8F04D00F00EBA0EB5D8
:1009800040F2334202920022CDE90022134600F0E9
:1009900013FA03B000BD01F0004330B421F0004170
:1009A00050EA010206D00A0DA2F56072C1F31301EC
:1009B000002A02DC30BC00207047440F44EAC10426
:1009C000C100E01830BC00EBC25000F0AFB900002D
:1009D000064C074D06E0E06840F0010394E807008C
:1009E00098471034AC42F6D3FFF75AFC1044000885
:1009F00030440008C0B24FF4F05100F02BBA0000B0
:100A00002DE9F34F8BB04FF0000801F10C000C46BC
:100A10004FF0010B46460DF1080A01906269012171
:100A200001989047051E2DD0252D2CD0216A88478E
:100A3000C0B16269012101989047216A8847002866
:100A4000F7D1411E62690198904700E0761CA169C8
:100A50000B988847216A88470028F7D1E1690B98ED
:100A60008847DBE7A1690B9888470746A84201D170
:100A7000761CD3E7E1690B9888477F1C02D1B8F157
:100A8000000F6FD046E1002762693D463946019864
:100A900090472A2804D162690121019890470125D5
:100AA000DFF884926269012101989047A0F130013A
:100AB0000A290AD24F45E5DC07EB870100EB410725
:100AC000303FDFD445F01005ECE7E90601D46FF0C4
:100AD00000476C280AD04C2814D0682815D06A2802
:100AE0000DD074281CD07A281AD01DE0626901212B
:100AF000019890476C2802D045F0040514E045F0B9
:100B000002050DE045F020050AE062690121019827
:100B10009047682802D045F0080505E045F40065D7
:100B20006269012101989047C4E9015765283DD0C9
:100B300019DC58287AD00CDC452837D004DC25286D
:100B400026D0412831D131E046282FD047282CD15A
:100B50002CE05B2877D0612828D063287CD06428DB
:100B600023D15AE0D0E06F2848D008DC66281DD099
:100B700067281BD0692821D06E2816D127E070285D
:100B800045D0732868D0752847D078280DD14DE01E
:100B9000A1690B988847054625283FF469AFE169AC
:100BA0000B9888476D1C3FF46AAFB3E023466A4652
:100BB0006FF001000B99FFF791FC9EE045F04000BB
:100BC0006060A80723464FF0000236D43EE0E807F5
:100BD0007FF447AF2068011D21600068290501D519
:100BE00006701BE7290701D5068017E7A90703D57B
:100BF000F117C0E9006111E706600FE745F040001A
:100C00006060A80723464FF0080216D41EE040F6A5
:100C10000E0125EA0100606016E045F040006060CA
:100C2000A80723464FF00A0207D40FE045F0400022
:100C30006060A80708D5234610226FF001000B99C9
:100C4000AFF3008059E007E0234610226FF0010067
:100C50000B99AFF3008050E04FF000094F464B4630
:100C6000632802D05B2806D040E0E80601D40120CA
:100C7000A06001273AE062690121019890475E284F
:100C800005D14FF0010962694946019890472169F1
:100C900039B900210A46534643F82120491C082946
:100CA000FADBB0B3216969B9C11700EBD162531106
:100CB0000AEB830122F01F02821A01200B68904088
:100CC00003430B6062690121019890475D28E8D1D8
:100CD000B9F1000F09D00020514651F82020D2432D
:100CE00041F82020401C0828F7DB02AB2246009781
:100CF0006FF001000B99AFF3008000280CDA401C64
:100D000008D1BBF1000F05D04FF0FF300DB0BDE8AA
:100D1000F08FFFE74046F9E7E90701D108F1010844
:100D200006444FF0000B79E6CCCCCC0C0029A8BFD0
:100D30007047401C490008BF20F00100704710B404
:100D4000B0FA80FC00FA0CF050EA010404BF10BCB9
:100D5000704749B1CCF1200421FA04F411FA0CF1E6
:100D600018BF012121430843A3EB0C01CB1D4FEA1F
:100D700000614FEA102042BF002010BC704700EB1A
:100D8000C35010440029A4BF10BC7047401C490048
:100D900008BF20F0010010BC704710B5141E73F19D
:100DA000000408DA401C41F1000192185B411A432B
:100DB00001D120F0010010BD2DE9F04D92469B4677
:100DC00011B1B1FA81F202E0B0FA80F2203290461D
:100DD000FFF7A0FC04460F4640EA0A0041EA0B0177
:100DE00053465A46084313D0114653EA010019D01E
:100DF000C8F140025046FFF79CFC05460E4650469F
:100E000059464246FFF786FC084305D0012004E01E
:100E100020463946BDE8F08D0020054346EAE076DD
:100E20002C4337430A986305E40AA0EB080000222C
:100E3000FD0A44EA47540A3002D500200146E9E79A
:100E4000010510196941DDE9084500196941BDE84E
:100E5000F04DA2E77F2801D9002208E0064A02EB04
:100E60005002C007127800D1120902F00F020120CF
:100E7000904008407047000092430008FEE70000E1
:100E800010B5084C607801280AD1E06840B102F042
:100E900091F80020A4F87400C4E91B00E0606070C1
:100EA00010BD00BF2000002470477047B0B5002877
:100EB0005DD090F83510022957D10168584A914207
:100EC00023D0584B99421CBF574B99421DD0574BCA
:100ED00099421CBF564B994217D0564B99421CBFA2
:100EE000554B994211D0554B99421CBF544B9942D6
:100EF0000BD0544B99421CBF534B994205D0534BD6
:100F000099421CBF524B994234D191424FF0040395
:100F100080F8353023D0434881421CBF424881428B
:100F20001DD0424881421CBF4148814217D04148F0
:100F300081421CBF4048814211D0404881421CBFC1
:100F40003F4881420BD03F4881421CBF3E4881420E
:100F500005D03E4881421CBF3D4881424DD10868C2
:100F600020F001000860002102E08021416501219C
:100F70000846B0BD374B9942C7D0374B9942C4D0D1
:100F8000364B9942C1D00A6822F00E020A600A6804
:100F900022F001020A60324A91420BD0314A91425A
:100FA0001CBF314A914205D0304A91421CBF304AA1
:100FB00091422BD100F158041ECC1D6825F4807598
:100FC0001D6002F01F02012303FA02F24A60816EE3
:100FD0006160C16E31B10A6822F480720A60D0E9A2
:100FE0001C124A60012180F83510026D002180F842
:100FF0003410002ABCD09047B5E716488142AED0E5
:1010000015488142ABD015488142A8E7194A914260
:10101000D0D0194A9142CDD0184A9142CAD0E1E7C6
:1010200010000240280002404000024058000240E8
:101030007000024088000240A0000240B800024058
:1010400010040240280402404004024058040240B8
:101050007004024088040240B8040240A004024028
:10106000085402581C540258305402584454025830
:10107000585402586C5402589454025880540258E0
:10108000B0B5044600F0E2F805469B48611C0078C4
:1010900018BF044400F0DAF8401BA042FAD3B0BDF8
:1010A0002DE9F84F594A4FF00A0A4FF000084FF067
:1010B000010B4FF0000C9042554A08BF4FF0090A4F
:1010C00002444FEAB223092B38BF4FEAB22A00226A
:1010D0000D6835FA02F600F097800BFA02F715EA70
:1010E000070900F084804E68122E00F286800BFA09
:1010F00006F414F0061F00F08080032303FA0CF4BA
:101100008368CD68A34305FA0CF56FEA040E2B4300
:10111000836033094568BD43934057002B434360C8
:10112000C3688C6803EA0E03BC402343C36046F0E7
:101130001003122B11D16FF0030508F01C030F24CC
:1011400005EA52059C4005442E6A26EA04040E690D
:1011500006FA03F323432B624E68036806F0030488
:1011600003EA0E03BC4023430360F3003FD56B4CFE
:10117000294F4FF0B04E236843F0020323602368E9
:101180000F2403F002030093009D08F00C0322F0EB
:1011900003059C400AFA03F3EE5926EA04042343AC
:1011A000EB511C4FFB6F4D6843EA0904EE0358BF37
:1011B00023EA0904FC67AE03D7F8803043EA090448
:1011C00058BF23EA0904C7F88040EE02DEF8003079
:1011D00043EA090458BF23EA0904CEF80040AD02EF
:1011E0003B6843EA090458BF23EA09043C6008F15C
:1011F00004080CF1020C01326AE70323674603FA84
:101200000CF46FEA040E8BE7BDE8F88F0024025857
:101210000000FEA7040000580804005800690840B8
:1012200018BF0120704742690A408A4208BF09047A
:1012300081617047002A08BF09048161704700007E
:1012400001480068000C70470010005C0548006809
:10125000704700BF2848034900780A6810440860B6
:10126000704700BF3C02002480B5032000F082F8E4
:1012700000F06AFF0E49614B0A68C2F30322096855
:1012800001F00F019A5C595C02F01F02D0401B4A2A
:1012900001F01F011060C84006490860002000F0FE
:1012A0000BF808B1012080BD00F02AF8002080BDB5
:1012B000184402581000002470B50F4E04463078D0
:1012C000B0B14FF47A71B1FBF0F00C490968B1FB91
:1012D000F0F001F007FA01250F2C0AD848B94FF0B9
:1012E000FF3021460022002500F028F8746000E05D
:1012F0000125284670BD00BF040000240C00002416
:1013000081B00648016841F002010160006800F008
:1013100002000090009801B0704700BFF4440258EA
:10132000002808D400F01F010122400902FA01F14F
:10133000014A42F82010704700E100E070B5134BFD
:101340004FF0FF351B68C3F30223DC1E83F0070355
:1013500038BF0024042B28BF042305FA04F605FA3D
:1013600003F3B2439943A1401143BDE8704002F03A
:10137000A5BD00BF05494FF6FF030A681A4060F398
:101380000A22034810430860704700BF0CED00E0DC
:101390000000FA05B0B5104D2A682968520705D437
:1013A00001F00701081A18BF0120B0BD21F00701A4
:1013B00008432860FFF74AFF044655F8080C8004EC
:1013C00007D4FFF743FF001BB0F57A7FF5D9012062
:1013D000B0BD0020B0BD00BF0C48025880B500F081
:1013E00075FE0549054A0968C1F30211515C01F017
:1013F0001F01C84080BD00BF20440258D2430008EE
:10140000B0B53B498B6A8A6ACC6AC4F30014CD6BD1
:10141000C5F3CC056C4300EE104AB8EE400AC2F3A7
:101420000532AAB103F00303022B15D0BBB90B6838
:101430009B0651BF9FED311A0B68C3F3C103304CBB
:1014400042BF24FA03F301EE103AB8EE411A08E065
:101450000021C0E9001148E09FED271A01E09FED4F
:10146000251A8B6B9FED273A6FF35F2302EE103A3C
:10147000B8EE422A00EE032A03EE102AB7EE000A65
:10148000B8EE433A8A6BC2F3462232EE002A81EE6E
:10149000031A21EE021A02EE102AB8EE422A32EEA8
:1014A000002A81EE022ABCEEC22A80ED002A8A6B55
:1014B000C2F3064202EE102AB8EE422A32EE002AA9
:1014C00081EE022ABCEEC22A80ED012A896BC1F3AB
:1014D000066102EE101AB8EE422A32EE000A81EEE0
:1014E000000ABCEEC00A10EE101A8160B0BD00BF49
:1014F000004402580024744A20BCBE4B0024744CA3
:101500000090D00300000039B0B53B498B6A8A6A6D
:10151000CC6AC4F300244D6CC5F3CC056C4300EEDB
:10152000104AB8EE400AC2F30552AAB103F0030311
:10153000022B15D0BBB90B689B0651BF9FED311A2A
:101540000B68C3F3C103304C42BF24FA03F301EE2E
:10155000103AB8EE411A08E00021C0E9001148E055
:101560009FED271A01E09FED251A0B6C9FED273A9E
:101570006FF35F2302EE103AB8EE422A00EE032A20
:1015800003EE102AB7EE000AB8EE433A0A6CC2F333
:10159000462232EE002A81EE031A21EE021A02EEF2
:1015A000102AB8EE422A32EE002A81EE022ABCEE60
:1015B000C22A80ED002A0A6CC2F3064202EE102A0B
:1015C000B8EE422A32EE002A81EE022ABCEEC22A8E
:1015D00080ED012A096CC1F3066102EE101AB8EE23
:1015E000422A32EE000A81EE000ABCEEC00A10EE7A
:1015F000101A8160B0BD00BF004402580024744A34
:1016000020BCBE4B0024744C0090D0030000003975
:101610002DE9F0470446C078A94F000721D5606E38
:101620004FEA3051032908D8DFE801F002090E160D
:10163000F96941F40031F9610EE0012612E0201D44
:10164000022101F07DFD04E004F12400022101F0FB
:10165000F3FD064630B9606E396C21F44011084341
:10166000386400266078BA46C00701D1354628E0C4
:10167000606D04280BD83546DFE800F0030C111725
:101680001700F869354640F40030F8610DE0012597
:10169000012717E0201D002101F052FD04E004F1B4
:1016A0002400002101F0C8FD05462F4655B9606DA4
:1016B000DAF840100025524621F007010843CAF825
:1016C00040003746607880072BD5A06D4FEAB010F8
:1016D00004280CD8DFE800F0030E13191900DAF81B
:1016E0001C00514640F40030CAF81C000DE00125F2
:1016F000012617E0201D002101F022FD04E004F185
:101700002400002101F098FD05462E4655B9A06D34
:10171000DAF840100025524621F4E0710843CAF877
:1017200040003E466078400702D4B04657462AE063
:10173000D4F8A40057464FEA7050042809D8DFE8CF
:1017400000F0030C11171700F86940F40030F8613D
:101750000EE001254FF0010815E0201D002101F0E9
:10176000EFFC04E004F12400002101F065FD0546D2
:10177000A84645B9D4F8A400B96C0025B04621F4B8
:1017800060010843B864607800072AD5D4F8A8003F
:101790004FEA3060042809D8DFE800F0030B101688
:1017A0001600F86940F40030F8610DE001250127CA
:1017B00018E0201D002101F0C3FC04E004F1240026
:1017C000002101F039FD05462F465DB9D4F8A80087
:1017D000DAF848100025524621F0E0610843CAF8C3
:1017E00048004746E078800724D5A06C4FEA3010C7
:1017F00003280BD8DFE800F012020D12DAF81C0003
:10180000514640F40030CAF81C0007E001250126CB
:1018100011E0201D022101F093FC05462E4655B92A
:10182000A06CDAF83C100025524621F03001084344
:10183000CAF83C003E466078C0062BD5E06D4FEA02
:10184000303004280CD8DFE800F0030E131919001B
:10185000DAF81C00514640F40030CAF81C000DE0D4
:101860000125012717E0201D002101F069FC04E09B
:1018700004F12400002101F0DFFC05462F4655B994
:10188000E06DDAF840100025524621F4E0410843AB
:10189000CAF8400037466078800625D5206E4FEAAA
:1018A0003040052809D8DFE800F013030D131313A7
:1018B000201D012101F044FC09E00125012614E06E
:1018C0001044025804F12400012101F0B5FC054642
:1018D0002E4655B9206EDAF840100025524621F404
:1018E000E0210843CAF840003E466078400625D50E
:1018F000D4F8AC004FEA3070052809D8DFE800F0D2
:1019000011030B111111201D012101F019FC07E039
:101910000125012713E004F12400012101F08CFCD2
:1019200005462F465DB9D4F8AC00DAF8481000251A
:10193000524621F0E0410843CAF848003746607833
:10194000000620D5E06E90B1B0F1005F0AD0B0F192
:10195000805F2CD1DAF81C00514640F40030CAF800
:101960001C0004E0201D012101F0EAFB05462E4683
:1019700055B9E06EDAF840100025524621F040518A
:101980000843CAF840003E46E078C00702D1B0469E
:10199000574622E0606C574603280BD8DFE800F07A
:1019A00013020E13F86940F40030F8610BE00125D2
:1019B0000126E9E701254FF001080EE0201D022174
:1019C00001F0BEFB0546A8463DB9606CF96B0025E9
:1019D000B04621F003010843F863A078400601D423
:1019E000474616E0D7F8F00340F48070C7F8F003DC
:1019F000FFF72CFC0646D7F8F003C00507D4FFF725
:101A000025FC801B6428F6D90325032701E02F4617
:101A10008DB12078C0074ED0A06F4FEAF0000528A6
:101A200034D8DFE800F03C03363C3C3C201D01216B
:101A300001F086FB32E0DAF86010D4F8B0005546C9
:101A4000414011F4407F0BD0296E2A6E42F480325F
:101A50002A6621F440712A6E22F480322A662966B1
:101A6000B0F5807F40F01082FFF7F0FB064641F2B0
:101A700088390327DAF86000800700F10282FFF757
:101A8000E5FB801B03254845F4D9C2E70125012663
:101A900012E004F12400012101F0CEFB05462E46A0
:101AA00055B9A06FDAF844100025524621F03801EC
:101AB0000843CAF844003E462078800721D5606F6D
:101AC000052809D8DFE800F011030B111111201DC2
:101AD000012101F035FB07E00125012712E004F1A7
:101AE0002400012101F0A8FB05462F4655B9606F7F
:101AF000DAF844100025524621F007010843CAF8DD
:101B0000440037462078400723D5D4F890000528B4
:101B100009D8DFE800F011030B111111201D01217C
:101B200001F00EFB07E00125012613E004F124007B
:101B3000012101F081FB05462E465DB9D4F89000E5
:101B4000DAF848100025524621F007010843CAF888
:101B500048003E462078800625D5D4F88C004FEA10
:101B60003070052809D8DFE800F011030B111111BE
:101B7000201D002101F0E4FA07E00125012713E010
:101B800004F12400022101F057FB05462F465DB900
:101B9000D4F88C00DAF844100025524621F0E041D8
:101BA0000843CAF8440037462078400625D5D4F8C3
:101BB00098004FEAB020052809D8DFE800F01103AB
:101BC0000B111111201D002101F0BAFA07E00125C7
:101BD000012613E004F12400022101F02DFB05464B
:101BE0002E465DB9D4F89800DAF848100025524620
:101BF00021F4E0510843CAF848003E462078000628
:101C000025D5D4F89C004FEA7030052809D8DFE8C4
:101C100000F011030B111111201D002101F090FAA9
:101C200007E00125012713E004F12400022101F05F
:101C300003FB05462F465DB9D4F89C00DAF848103E
:101C40000025524621F460410843CAF8480037464F
:101C50002068010717D5D4F88010B1F5805F0AD14C
:101C600004F12400022101F0E7FA002818BF01273F
:101C70002068D4F88010DAF84420534622F4405209
:101C80001143CAF84410C10617D5D4F89410B1F521
:101C9000807F0AD104F12400022101F0CDFA00284E
:101CA00018BF01272068D4F89410DAF8482053466A
:101CB00022F440721143CAF84810000320D5D4F82A
:101CC000A000B0F5003F0ED0B0F5803F05D078BB46
:101CD000201D002101F034FA04E004F12400022167
:101CE00001F0AAFA05462E465DB9D4F8A000DAF84C
:101CF00048100025524621F440310843CAF84800F4
:101D00003E46A078400729D5D4F88400B0F5401F9E
:101D100017D0B0F5001F0ED0B0F5801F40F0AE8098
:101D2000DAF81C00514640F40030CAF81C0008E004
:101D300001250126E5E704F12400012101F07CFAE8
:101D400005462F465DB9D4F88400DAF84410002522
:101D5000524621F440110843CAF844003746A0789F
:101D6000C00701D13E4620E0E06CB0F5803F08D0CE
:101D7000C8B9DAF81C00514640F40030CAF81C001B
:101D800004E0201D022101F0DBF905462E4665B96D
:101D9000E06CDAF83C100025524621F4803108430B
:101DA000CAF83C00DEE7012501262068810008D53D
:101DB00004F12400022101F03FFA002818BF012697
:101DC000206881031BD5E16F6FF0010202EB312225
:101DD000022A0AD34FEA31223AB1012A06D1DAF8AF
:101DE0001C2042F40032CAF81C200DB1012606E086
:101DF000DAF8442022F440721143CAF84410C102B8
:101E000007D5216FDAF8402022F000421143CAF8CA
:101E10004010C10008D5D4F8B410DAF8002022F43C
:101E200080421143CAF80010810207D5A16EDAF88A
:101E3000402022F080721143CAF8401041000CD5B6
:101E4000DAF8001021F40041CAF80010D4F8B810F4
:101E5000DAF800201143CAF80010B0F1FF3F07DCA8
:101E6000206DDAF83C1021F040510843CAF83C00DC
:101E7000002E18BF01263046BDE8F0870125012756
:101E80006DE75546D4F8B0002A68094900F440735C
:101E900022F47C5201EA1011B3F5407F6FF31F303A
:101EA00008BF0A432A60296E08432866002597E583
:101EB000CFFFFF002DE9F843002800F00081814D9D
:101EC00004468846286800F00F0088420BD2286834
:101ED00020F00F0040EA08002860286800F00F009A
:101EE000404540F0EC802068CC4F41070AD521697D
:101EF000BA6902F07002914204D9BA6922F0700204
:101F00001143B96101070AD56169FA6902F07002EB
:101F1000914204D9FA6922F070021143F961C106B5
:101F20000AD5A169FA6902F4E062914204D9FA691A
:101F300022F4E0621143F96181060AD5E1693A6A47
:101F400002F07002914204D93A6A22F07002114301
:101F5000396210F002010AD0E268BB6903F00F0396
:101F60009A4204D9BB6923F00F031A43BA61C2072E
:101F70003AD0D4E90101BA6922F47062032841EA37
:101F80000201B96105D0022807D1396889030DD44F
:101F900095E03968890109D491E03968012802D1B6
:101FA000C90503D48BE0490740F189803969A94606
:101FB00021F0070108433861FFF748F9064641F26E
:101FC00088356068396901F03801B1EBC00F07D07E
:101FD000FFF73CF9801BA842F3D90320BDE8F88342
:101FE00020684D4600F0020151B1E168BA6902F083
:101FF0000F02914204D2BA6922F00F021143B96173
:10200000296801F00F0141450AD9296821F00F0123
:1020100041EA08012960296801F00F0141454ED1CC
:1020200041070AD52169BA6902F07002914204D2CF
:10203000BA6922F070021143B96101070AD56169DA
:10204000FA6902F07002914204D2FA6922F0700239
:102050001143F961C1060AD5A169FA6902F4E06287
:10206000914204D2FA6922F4E0621143F9618006D8
:102070000AD5E069396A01F07001884204D2396AF0
:1020800021F070010843386200F05EF8B9692D4A0A
:102090001B4BC1F30321515C01F01F01C840B9691A
:1020A000186001F00F01515C01F01F01C840154993
:1020B000086005480068BDE8F843FFF7FDB8012057
:1020C000BDE8F883002000520800002480B500F02D
:1020D0003BF80A491B4B0A68C2F30322096801F066
:1020E0000F019A5C595C02F01F02D040044A01F0D3
:1020F0001F011060C8400349086080BD18440258A1
:102100000C0000241000002480B5FFF7DFFF0C490D
:102110000C4A0968C1F30211515C01F01F01C8406B
:1021200080BD00BF80B5FFF7D1FF0549054A0968AA
:10213000C1F30221515C01F01F01C84080BD00BF06
:102140001C440258D243000810B534490869C0F352
:10215000C20003280BD002282FD080BB086880065D
:1021600034485AD50968C1F3C101C84010BD8A6A14
:10217000886ACB6A4C6B03F00103C4F3CC0463435D
:1021800000EE103AB8EE400AC0F30510C8B102F0F4
:102190000302022A17D0CAB90A68920651BF9FEDFE
:1021A000241A0A68C2F3C102224B42BF23FA02F288
:1021B00001EE102AB8EE411A0AE01A4810BD18487C
:1021C00010BD002010BD9FED191A01E09FED161AF9
:1021D0000A6B9FED193A6FF35F2202EE102AB8EEF8
:1021E000422A00EE032AB7EE000A32EE000A02EE9F
:1021F000100AB8EE422A086BC0F3462081EE021A9C
:10220000013021EE000A01EE100AB8EE411A80EE0C
:10221000010ABCEEC00A10EE100A10BD00440258BC
:1022200000093D0040787D010024744A20BCBE4B6B
:102230000024744C0090D00300000039F8B5002849
:1022400000F0E88004460078D34EC00712D0306911
:1022500000F03801B06A102905D018292CD100F0FF
:102260000300022828D13068800303D56068002865
:1022700000F0D0802078800750D5306910F0380108
:10228000B06A2CD0182908BF5FEA807027D0306868
:10229000E168002900F0088120F01900084330604F
:1022A000FEF7D4FF0546306840071FD4FEF7CEFF87
:1022B000401B0228F7D984E16068002800F00581FE
:1022C000B0F5803F07D03168B0F5A02F40F06681AF
:1022D00041F480203060306840F4803064E1306840
:1022E000400703D5E068002800F09480FEF7A8FFBF
:1022F00041F2030188420AD82069716821F47C31D7
:10230000402814BF41EA003041F4003005E0206964
:10231000716821F0FE4141EA006070602078C006DB
:102320003ED5306900F03801B06A082905D0182977
:102330001BD100F00300012817D13068C00502D579
:10234000E069802866D1FEF77BFF41F203018842F5
:102350001FD8206A716821F0F841202814BF41EA93
:10236000806041F0804070601AE03068E1690029C7
:1023700000F0E28040F080003060FEF767FF054625
:102380003068C005DFD4FEF761FF401B0228F7D993
:1023900017E1206AF16821F07C5141EA0060F060A9
:1023A0002078000738D42078800647D4207840076A
:1023B00057D4676A67B3306900F03800182840F0D6
:1023C000CC80B16A306B012F24D0A26A01F00303E4
:1023D00093421FD1E26AC1F3051191421AD101461D
:1023E000226B6FF35F21013A914213D1C0F3462172
:1023F000626B013A91420DD1C0F30641A26B013AE2
:10240000914207D1C0F30660E16B0139884201D1E6
:10241000002065E10120F8BD706F6169A1B340F053
:1024200001007067FEF712FF0546706F8007BAD48F
:10243000FEF70CFF401B0228F7D9C2E03068A16903
:10244000002968D040F480503060FEF7FFFE05465A
:1024500030688004AAD4FEF7F9FE401B0228F7D9A1
:10246000AFE0D6F8000440F48070C6F80004FEF730
:10247000EDFE0546D6F80004C0053CD4FEF7E6FEA6
:10248000401B6428F6D99CE020F001007067FEF73D
:10249000DDFE0546706F80077FF585AFFEF7D6FE3F
:1024A000401B0228F6D98CE020F001003060FEF7D6
:1024B000CDFE0546306840077FF530AFFEF7C6FE1B
:1024C000411B03200229F5D90AE1306820F480304D
:1024D0003060306820F480203060FEF7B7FE05469B
:1024E000306880037FF5C6AEFEF7B0FE411B0320C7
:1024F0006429F5D9F4E0A068002864D0012806D04A
:10250000316F052840F0D68041F004003067306F0D
:1025100040F00100D4E020F480503060FEF796FED9
:102520000546306880047FF541AFFEF78FFE411B02
:1025300003200229F5D9D3E020F080003060FEF7B7
:1025400085FE05463068C0057FF52AAFFEF77EFEA2
:10255000411B03200229F5D9C2E0306820F08070C9
:102560003060FEF773FE0546022F09D13068800106
:1025700041D5FEF76BFE411B03200229F6D9AFE0DF
:10258000306880017FF544AFFEF760FE411B0320F9
:102590000229F5D9A4E000BF0044025821F480309C
:1025A0003060306820F480203060FEF74FFE054632
:1025B000306880033FF55EAEFEF748FE401B64289E
:1025C000F6D90320F8BD306F20F001003067306F7E
:1025D00020F004003067FEF739FE054641F28837E7
:1025E000306F80077FF5E5AEFEF730FE411B03201C
:1025F000B942F5D974E004F12805B06A40F2F3312C
:1026000088432ECD0843591E40EA0210B0626FF392
:102610005F214FF4FE024FF47E4000EB452080B274
:102620000844A16B02EB01414FF0FE4201F4FE01B0
:102630000844E16B02EB016101F0FE4108443063A4
:102640004FF6F871F06A20F00100F062706B884379
:10265000A16C40EAC1007063206CF16A21F00C01AA
:102660000843F062F06A616C20F002000843F062F7
:10267000F06A40F48030F062F06A40F40030F062BA
:10268000F06A40F48020F062F06A40F00100F062ED
:10269000306840F080703060FEF7D8FD0446306846
:1026A00080013FF5B5AEFEF7D1FD011B03200229E5
:1026B000F5D915E021F001003067306F20F00400FB
:1026C0003067FEF7C3FD054641F28837306F80075B
:1026D0003FF56FAEFEF7BAFD411B0320B942F5D9B5
:1026E000F8BD0000411E0020B0EB116F01D00120A9
:1026F0007047044AF023516003490B709060072132
:102700001160704710E000E023ED00E090F87C10CD
:10271000012901D1022112E02421C0F880100168B2
:102720000A680B6823F001030B6022F000520A6074
:102730000021416680F87C102022C0F880200846E5
:1027400070477047B0B5044690F87C00012801D16D
:102750000220B0BD2420C4F880002068056802680B
:1027600022F001020260012284F87C20826822F0BB
:10277000606211438160204600F048FF20682021FC
:102780000560002084F87C00C4F88010B0BDB0B5AE
:10279000044690F87C00012801D10220B0BD24201D
:1027A000C4F8800020680568026822F00102026017
:1027B000012284F87C20826822F06042114381600B
:1027C000204600F023FF206820210560002084F8C7
:1027D0007C00C4F88010B0BD70477047704700009F
:1027E000F8B50446006840F62F01C26902EA010507
:1027F00001688368202D0ED101F0200503F080567A
:10280000AD1900F08580E16E002900F0BF80204600
:10281000BDE8F840084740F60F052A4278D0614DE0
:1028200001EA0506604D1D40761971D0D60718BF24
:1028300011F4807607D001260662D4F8886046F04D
:102840000106C4F8886003F00106970708D53EB179
:1028500002270762D4F8887047F00407C4F888702C
:10286000570708D53EB104260662D4F8886046F0C2
:102870000206C4F8886016070BD501F02006354320
:1028800007D008250562D4F8885045F00805C4F83B
:10289000885015050BD511F0806508D04FF4006500
:1028A0000562D4F8885045F02005C4F88850D4F863
:1028B0008850002D6AD012F020020AD001F02001C9
:1028C00003F08052891804D0E16E11B12046884788
:1028D0002068D4F88810806801F0280100F04000DA
:1028E00040184DD0204600F041FF2068816849061D
:1028F00041D5816821F040018160A06FD8B32B4998
:102900000165FEF7D3FA002840D0A06F016D7FE784
:10291000D5020AD513F4800507D04FF48011016267
:102920002046BDE8F840FFF758BF150607D501F06F
:10293000800503F400035B1901D0216F64E702EA0C
:1029400001035B060DD5016821F040010160002004
:1029500020672020C4F880002046BDE8F84000F041
:1029600023BA100213D511F0804010D02046BDE8E4
:10297000F840FFF731BF2046BDE8F840FFF72EBF13
:102980002046FFF72BFF0020C4F88800F8BDD001D7
:10299000FCD5B1F1FF3FF9DC2046BDE8F840FFF778
:1029A000D0BE00BF20010004010000105D37000808
:1029B00010B5B0B10446D0F8800028B9002084F8E2
:1029C0007C00204600F026F82420C4F8800020680F
:1029D000016821F001010160204600F0D1FF0128CB
:1029E00001D1012010BDA06A10B1204600F030FED8
:1029F0002068416821F490414160816821F02A01FA
:102A00008160016841F0010101602046BDE810408D
:102A100000F073BE10B586B0044601A81421FDF77E
:102A20008FFC20683949884221D0394988423FD0FB
:102A30003849884267D13848016941F01001016185
:102A4000016901F0100100910099016841F0010154
:102A50000160006800F00100009007200590002050
:102A6000CDE90300022002904FF4C06019E02A482B
:102A7000816841F400318160816801F40031009186
:102A80000099016841F001010160006800F0010057
:102A90000090072005900020CDE90300022002905D
:102AA0000C20019001A900981C48FEF7F9FA2AE0D1
:102AB000F048816841F480218160816801F48021BF
:102AC00000910099016841F002010160006801A9CC
:102AD00000F002000090072005900020CDE90300DF
:102AE000022002904FF44060019000980B4800F5DE
:102AF0008060FEF7D5FA272003210022FEF71EFC96
:102B00002720FEF70DFC06B010BD00BF00440040BA
:102B10000048004000100140E04402580000025804
:102B2000B0B5D0F88430202B06D1012329B122B1D1
:102B300090F87C30012B02D102231846B0BDA0F8DA
:102B40005E208165012180F87C10A0F85C200021C6
:102B5000C166816851B1B1F1805F0BD0B1F5805F82
:102B60000CD1036923B940F2FF130AE003693BB9B2
:102B7000FF2306E003691BB13F2302E0002300E0CE
:102B80007F23A0F860300023C0F888302223C0F8EB
:102B900084300468436EB3F1005FA56845F0010519
:102BA000A56003D1B0F8683093420ED9B1F5805FCB
:102BB00001D1016981B11349002380F87C30C166DD
:102BC000206840F490702060B7E7B1F5805F01D1D4
:102BD000016919B1094902E00949EDE7064922688E
:102BE000002342F48072226080F87C30C166A068C5
:102BF00040F08050A060A0E7E1370008D938000815
:102C00008D37000881380008F74900680968884254
:102C100018BF7047F2490878412802D10120487056
:102C200005E0CA68531C0A44CB6082F86C0000209F
:102C300008700122EC48FFF773BF00BF2DE9FC4785
:102C40000446D0F8800020280AD10D460120002932
:102C500059D01646002A56D094F87C00012802D19B
:102C60000220BDE8FC8701204FF0000AC4F888A0CC
:102C700084F87C0099462120C4F88000FEF7E6FA2B
:102C8000A4F856608046A4F85460A068B0F5805F50
:102C900006D127690026002F0CBF2E462F4601E0E3
:102CA0002F46002684F87CA0B4F85600D8B1204600
:102CB000802100224346CDF8009001F0A9F8D8B950
:102CC00027B1216817F8010B886206E036F8021B6D
:102CD000206800276FF35F218162B4F85600013845
:102CE000A4F85600E0E72046402100224346CDF8F4
:102CF000009001F08DF810B10320BDE8FC87202082
:102D0000C4F880000020BDE8FC870000D0F88030C7
:102D1000202B06D1012329B122B190F87C30012B60
:102D200002D1022318467047A0F856200023C0F8AD
:102D300088300165012180F87C10A0F854200367D9
:102D40002121C0F88010426E8168B2F1005F06D187
:102D5000B1F5805F01D1016941B1124907E0B1F5D8
:102D6000805F01D1016961B10C490BE00C4900237E
:102D700080F87C3001670068816841F4000181605F
:102D8000D0E70549002380F87C30016700680168BE
:102D900041F080010160C5E7013D00088D3D00085C
:102DA0003F3D0008C73D00087047FEE72DE9F041B0
:102DB00086B030484FF00008CDF81480DE4C002279
:102DC0000325016841F080010160016801F0800184
:102DD00000910099016841F001010160016801F072
:102DE000010100910099016841F002010160016850
:102DF00001F0020100910099016841F008010160B1
:102E0000016801F0080100910099016841F0040196
:102E100001600068032100F0040000900098204643
:102E2000FEF708FACDE903880120CDE9015001AD94
:102E3000114F20462946B8474FF400400226CDE9FD
:102E40000286019029462046B8474FF4C050CDE98C
:102E500002860190294604F50060B8474FF42070BF
:102E6000CDE902860190294604F58060B84706B096
:102E7000BDE8F081E0440258A110000810B5174CDD
:102E80000C2000214FF4E132154BC4E90032C4E9B3
:102E90000211C4E9041004F118001421FDF750FADE
:102EA0002046FFF785FD08B1FDF7FFFF0B48002125
:102EB000FFF76DFC08B1FDF7F8FF08480021FFF7A8
:102EC00041FC08B1FDF7F1FF0448FFF71FFC18B102
:102ED000BDE81040FDF7E9BF10BD00BF9800002419
:102EE0000010014010B5174C0C2000214FF4E132C6
:102EF000154BC4E90032C4E90211C4E9041004F11D
:102F000018001421FDF71CFA2046FFF751FD08B107
:102F1000FDF7CBFF0B480021FFF739FC08B1FDF7A7
:102F2000C4FF08480021FFF70DFC08B1FDF7BDFF05
:102F30000448FFF7EBFB18B1BDE81040FDF7B5BF43
:102F400010BD00BF240100240044004010B5264CF1
:102F50000C2000214FF49642144BC4E90032C4E91E
:102F60000211C4E9041004F118001421FDF7E8F976
:102F70002046FFF71DFD08B1FDF797FF1A48002115
:102F8000FFF705FC08B1FDF790FF17480021FFF798
:102F9000D9FB08B1FDF789FF1348FFF7B7FB18B15C
:102FA000BDE81040FDF781BF10BD00BF00480040E4
:102FB000FEE7000010B50A4C0AA104F16C0004F110
:102FC0001002FDF7DBF994ED040A00F0B5F90648AC
:102FD00006A10422FFF79AFE0020206110BD00BF69
:102FE0002000002425660000B00100245245430A59
:102FF000000000002DE9F04196B0074600200DF1D9
:1030000002060D46ADF85400ADF84800ADF83C009E
:10301000CDE91300CDE91000CDE90D003121904636
:10302000701CFDF78DF9232013AC8DF802000A22E5
:103030003846214601F0EEF82046FDF798F90228BF
:103040000BD001280ED13046FDF791F943F2300143
:10305000315230440021817004E03046FDF787F999
:10306000302131520DF1020613A93046FDF773F9F4
:1030700010AC28460A22214601F0CCF82046FDF784
:1030800076F904280BD003280ED13046FDF76FF9EE
:1030900043F25001315230440021817004E0304647
:1030A000FDF765F9502131520DF1020510A92846AE
:1030B000FDF751F90DAC40460A22214601F0AAF86D
:1030C0002046FDF754F9042809D003280DD0022822
:1030D00014D12846FDF74BF9144929500EE0284633
:1030E000FDF745F95421295208E02846FDF73FF93C
:1030F00043F2540129522844002181700DA9284629
:10310000FDF729F9FDF733F90949295028463221FD
:1031100000F064FA07A0294601F0AAF80648022147
:10312000FEF781F816B0BDE8F08100BF54303000E2
:10313000210D0A002573000000040258FEE77047C5
:10314000F8B57B4F0546B86A00F00300032801D1AB
:103150000120F8BD38680C4620F080603860FEF72A
:1031600075F806463868000105D5FEF76FF8801B34
:103170000228F7D95CE095E80F00BE6A26F47C3699
:10318000A1F1010146EA0030B8626FF35F214FF40C
:103190007E4000EB42204FF0FE4280B208444FF4E4
:1031A000FE0101EB034101F4FE010844296902EB31
:1031B000016101F0FE410844B8636869F96A21F0D1
:1031C000C00140EA0100F862A869F96A21F0200113
:1031D00040EA0100F8624FF6F871F86A20F010003A
:1031E000F862F86B20EA0100E96940EAC100F8637F
:1031F000F86A40F01000F8623CB1F86A012C14BF84
:1032000040F4001040F4801002E0F86A40F400201E
:10321000F862386840F080603860FEF717F80446BE
:103220003868000106D4FEF711F8001B0328F7D315
:103230000320F8BD0020F8BDF8B5D04F0546B86AA8
:1032400000F00300032801D10120F8BD38680C46C6
:1032500020F080503860FDF7F9FF0646386880009E
:1032600005D5FDF7F3FF801B0228F7D95CE095E850
:103270000F00BE6A26F07C76A1F1010146EA0050FB
:10328000B8626FF35F214FF47E4000EB42204FF0B5
:10329000FE4280B208444FF4FE0101EB034101F409
:1032A000FE010844296902EB016101F0FE41084476
:1032B00038646869F96A21F4406140EA0100F86203
:1032C000A869F96A21F4007140EA0100F8624FF63A
:1032D000F871F86A20F48070F862786C20EA0100D6
:1032E000E96940EAC1007864F86A40F48070F862E5
:1032F0003CB1F86A012C14BF40F0807040F400002B
:1033000002E0F86A40F48000F862386840F08050CB
:103310003860FDF79BFF04463868800006D4FDF74F
:1033200095FF001B0328F7D30320F8BD0020F8BD4C
:103330000044025870470000B0B52DED048B244CBA
:10334000B0EE408A9FED239A234D01204FF47A720C
:10335000B0EE491A94ED000AB8EEC00A00EE081A61
:10336000BDEEC10A10EE101AA84794ED000A022023
:103370004FF47A72B8EEC00A00EE089ABDEEC90AA0
:1033800010EE101AA84794ED000A9FED149A03203E
:103390004FF47A72B8EEC00AB0EE491A00EE081A7D
:1033A000BDEEC10A10EE101AA84794ED000A0420E1
:1033B0004FF47A722B46B8EEC00A00EE089ABDEEC2
:1033C000C90A10EE101ABDEC048BBDE8B0401847D6
:1033D0001800002400007A44F52F00080000FA4489
:1033E00010B57D4C01204FF448714FF4FA62A047AC
:1033F00002204FF448714FF4FA62A04703204FF4C3
:10340000FA614FF4FA62A04704204FF4FA614FF4D6
:10341000FA622346BDE81040184700BFFDF71ABF07
:10342000B0B5CCB039A84C21FCF78AFF31A82021D7
:10343000FCF786FF02A8BC21FCF782FF0220FDF703
:10344000A9FF0020019001222348016821F0010119
:103450000160006800F0010001902048016862F3FB
:103460008F310160016801F44041019101990168C7
:103470008904FCD54FF440600C214B90002440257A
:1034800002204A90CDE948010921CDE94600459145
:1034900004214491CDE94204399039A83D95012198
:1034A0003C91FEF7CBFE4FF4806037903895CDE924
:1034B0003555CDE933440121032532953F20319024
:1034C00031A8FEF7F7FC02A8CDE91F440295FEF7EC
:1034D0009FF84CB0B0BD00BF2C04005818480258EB
:1034E000B0B52448244BD0F8801041F47001C0F8E6
:1034F0008010196801F00F01062904D81968072205
:1035000062F3030119601D491D4D0A6842F0010272
:103510000A6000220A610C682C400C601C682407B9
:1035200004D51C68072565F303041C60154B8A61EC
:10353000CA610A628B62144BCB62144B0B634A6301
:103540008B63CA630B644A640B6823F480230B60AB
:103550000A660F490968B2EB517F02D10D49012279
:103560000A600D4943F2D2020A604FF00061016027
:10357000B0BD00BF08ED00E000200052004402583A
:103580007FEDF6EA000202020000FF018002010165
:103590000010005C088100510040005210B50E4C34
:1035A000012040F634014FF4FA62A047022040F6B1
:1035B00034014FF4FA62A04703204FF461714FF4D5
:1035C000FA62A04704204FF461714FF4FA62234677
:1035D000BDE81040184700BFF52F0008F8B50C46AD
:1035E00005460027084EA7420CD0E91930460122B3
:1035F0004FF47A73FFF722FB3068C1690906FCD5E6
:103600000137F0E7F8BD00BF24010024B0B5416EDA
:1036100091B102680C4B0D4D9168C1F34261926803
:10362000520F5C5C695C9B5CAA5C09011201B1FBF6
:10363000F4F1B2FBF3F201E001220121A0F86810DD
:10364000A0F86A20B0BD00BF02440008FA43000899
:1036500010B5816ACA0706D00268C36A546824F4A8
:103660000034234353608A0706D50268036B54680D
:1036700024F48034234353604A0706D50268436B21
:10368000546824F48024234353600A0706D5026853
:10369000836B546824F4004423435360CA0606D560
:1036A0000268C36B946824F48054234393608A06B1
:1036B00006D50268036C946824F400542343936095
:1036C0004A0610D50268436CB3F5801F546824F491
:1036D000801444EA0304546005D1836C546824F4D4
:1036E000C00423435360090606D50168C06C4A68CC
:1036F00022F400221043486010BDBCB504460020EF
:10370000C4F88800FDF7A2FD054620680168090796
:103710000BD56FF07E4000904FF4001100222B4635
:10372000204600F075FB70B92068006840070CD592
:103730006FF07E4000904FF4800100222B4620461F
:1037400000F066FB08B10320BCBD00202021C4F8B6
:10375000801084F87C00C4F88410BCBD806B00210C
:10376000A0F85E10A0F85610FFF738B80168824B39
:103770000A6822F490720A608A681A408A600021FE
:10378000C1662021C0F88410704700BF0168D0F8DE
:103790008420222A10D1B0F860204B6A1A40836D31
:1037A00023F8022BB0F85E20013AA0F85E20836572
:1037B000B0F85E202AB17047886940F0080088613F
:1037C00070470A6822F490720A608A6822F0010247
:1037D0008A600021C1662021C0F88410FFF714BA66
:1037E0002DE9F8430446B0F86050D0F88400222850
:1037F00028D16148B4F868604FF00008202781465E
:10380000300426D02068A16D426A2A4021F8022B9C
:10381000B4F85E20013AA4F85E20A165B4F85E1009
:1038200071B9016821F480710160816801EA0901C0
:1038300081602046C4F86C80C4F88470FFF7E4F916
:10384000013EDDE72068816941F008018161BDE842
:10385000F883B4F85E000028F9D0B4F86810884204
:10386000F5D22068816821F0805181600349E166CA
:10387000016841F020010160BDE8F8838D37000840
:103880000168D0F88420222A11D1B0F86020496A5A
:103890001140826D1170B0F85E100139A0F85E1011
:1038A000816D01318165B0F85E1029B1704788697A
:1038B00040F008008861704701680A6822F490723D
:1038C0000A608A6822F001028A600021C166202114
:1038D000C0F88410FFF798B92DE9F8430446B0F812
:1038E0006050D0F8840022282AD12348B4F86860B8
:1038F0004FF0000820278146300428D02068A16DB1
:10390000406A28400870B4F85E000138A4F85E00F0
:10391000A06D0130A065B4F85E0078B92068016838
:1039200021F480710160816801EA0901816020460B
:10393000C4F86C80C4F88470FFF766F9013EDBE7D9
:103940002068816941F008018161BDE8F883B4F81D
:103950005E000028F9D0B4F868108842F5D22068DB
:10396000816821F0805181600449E166016841F07D
:1039700020010160BDE8F883FEFFFFEF81380008F9
:10398000FEB50446016880689E4ED4E903230D68A5
:103990002E4018436569636E2843E5692843184340
:1039A000994B30430860994E4868B14220F440502A
:1039B00040EA02004860A0691CBF226A10438A687E
:1039C0001A40934B10438860626AC86A20F00F0067
:1039D0001043C8628F48814228D08F48814232D03C
:1039E0008E4881423CD08E48814246D08D488142EB
:1039F00000F050808C48814200F05880B14200F0C5
:103A000061808A48814200F069808948814240F0A3
:103A10007B80586D9C46C0F3C200052800F275807B
:103A20000127DFE800F07367696B6D6F586D9C4686
:103A300000F00700052800F268800027DFE800F0AA
:103A4000665A5C5E6062586D9C4600F0070005286F
:103A500000F25B800027DFE800F0594D4F515355CD
:103A6000586D9C4600F00700052800F24E800027A4
:103A7000DFE800F04C4042444648586D9C4600F058
:103A80000700052800F241800027DFE800F03F33FF
:103A90003537393B586D9C4600F00700052834D86F
:103AA0000027DFE800F03327292B2D2F586D9C4687
:103AB00000F00700052828D80027DFE800F0271BC2
:103AC0001D1F2123986D9C4600F0070005281CD877
:103AD0000227DFE800F01B0F11131517586D9C46E5
:103AE000C0F3C200052810D80127DFE800F00F035B
:103AF0000507090B042709E0082707E0102705E060
:103B0000202703E0402701E09C4680277848B14207
:103B10000FD00121B5F5004F1BD1082F25D8DFE8C4
:103B200007F00589C8C88CC8C8C89000FEF7ECFA31
:103B30008BE0402F30D0042F31D0082F33D0102FFE
:103B400039D0202F41D0022F40F0B280FDF746FC43
:103B50002DE0082F14D8DFE807F0058DACAC90AC51
:103B6000ACAC9400FEF7D0FA8FE0102F00F0A980E3
:103B7000202F6CD0402F40F09C804FF4004066E036
:103B8000102F00F0A980202F00F08180402F40F0FE
:103B900090804FF400407AE04FF4004015E0684612
:103BA000FDF72EFC02E06846FDF7AEFC0198002808
:103BB0007CD0626A09E0DCF8000080064D4804D53C
:103BC000DCF80010C1F3C101C8404B4931F81210B4
:103BD0006268B0FBF1F002EB42030121984268D326
:103BE0001303984265D8010E0002002310EB520027
:103BF00041F10001FCF76CFBA0F540713F4A914296
:103C000052D955E0F369FFCFFFF4FF11000C0058C3
:103C1000004402580044004000480040004C00406E
:103C20000050004000780040007C0040001401403B
:103C300000100140FEF776FA07E06846FDF7E0FB6A
:103C400002E06846FDF760FC019878B3626A2A4991
:103C500031F81210B0FBF1F061684A0802EB400045
:103C6000B0FBF1F04FF6F071014021D0C0F34200FB
:103C7000084319E0FEF756FA07E06846FDF7C0FB77
:103C800002E06846FDF740FC019878B1626A1A4983
:103C900031F81210B0FBF1F0616800EB5100B0FB9D
:103CA000F1F080B2102803D32168C860002100E041
:103CB000012100204FF00112C4E91A2020670846B4
:103CC000FEBDDCF8000080060A48C0D5DCF8001014
:103CD000C1F3C101C840BAE7DCF80000800605481E
:103CE000D5D5DCF80010C1F3C101C840CFE700BF53
:103CF00000093D000090D003E2430008FFFC0F00E4
:103D0000D0F8801021290FD1B0F8561069B1026D9A
:103D1000016832F8023B6FF35F238B620265B0F8F3
:103D200056100139A0F8561070470068016821F05C
:103D300080010160016841F040010160704710B5E9
:103D4000D0F88010212920D1B0F86A100A041CD0C4
:103D50000268B0F8563083B1D3691B060BD5036DEA
:103D600033F8024B6FF35F2494620365B0F856207A
:103D7000013AA0F856200139E8E7906820F40000E5
:103D80009060106840F04000106010BDD0F88010C6
:103D900021290DD1B0F8561059B1026D016812F801
:103DA000013B8B620265B0F856100139A0F856103D
:103DB00070470068016821F080010160016841F0EE
:103DC00040010160704710B5D0F8801021291ED144
:103DD000B0F86A100A041AD00268B0F8563073B10D
:103DE000D3691B0609D5036D13F8014B9462036573
:103DF000B0F85620013AA0F856200139EAE7906859
:103E000020F400009060106840F04000106010BD89
:103E10002DE9F843DDF820900F46984616460446F3
:103E2000016809F10105C8693840C01BB0FA80F08B
:103E30004009B04225D1002DF5D0FDF707FA2168E1
:103E4000B9F1000F0A681FD0A0EB080048451BD845
:103E5000500744BFC8695FEA0050E4D54FF40060E2
:103E60000862086820F4D0700860886820F00100BB
:103E700088602020C4F88000C4F8840004F1880021
:103E80000EE00020BDE8F88322F4D0700860886856
:103E900020F0010088602020C4F8800004F1840034
:103EA000002184F87C10202101600320BDE8F88304
:103EB000CF48FEF795BC00BFFEE7000010B500F04C
:103EC0000F03064C044AB0F1FF3F2344C8BF8318D8
:103ED0000801187010BD00BF00E400E014ED00E020
:103EE000BCB5094D04468DF807000DF1070101220C
:103EF0004FF47A732846FEF7A1FE2868C1690906C7
:103F0000FCD52046BCBD00BF9800002484B0FDF75E
:103F1000ABF9FFF785FAFEF749FFFEF7AFFFFEF7B3
:103F2000E1FFFFF713F8B24CDFF8C8A201222046E8
:103F30005146FEF7F5FDB04920460522FEF7E6FEA4
:103F4000AE4800F5806100F5006001910090AB483B
:103F50004FF40041AA4CA047019DCAF814008021EB
:103F60002846A047CAF8180028464FF40071A04719
:103F7000009DCAF81C004FF480512846A047CAF89B
:103F8000200028464FF40061A047CAF82400411ED3
:103F9000DAE905E6DAE90747B1FA81F184F00109C7
:103FA00046EA0E0B7D1E4909AEF10103BEF1000F7A
:103FB0004BEA0902B5FA85F5B3FA83F3B2FA82F255
:103FC0004FEA551C4FEA53134FEA521202EA0C0211
:103FD00002EA0102CAF8342044EA060242EA07056E
:103FE000B2FA82F2B5FA85F54FEA52124FEA551548
:103FF00002EA030205EA0305039502EA0C0205EA58
:104000000105CAF8305002EA0102CAF82820A6F1D8
:104010000105B5FA85F54FEA551503EA050847EAA3
:104020000405B5FA85F54FEA551505EA0805029528
:1040300005EA0105CAF82C5008BF012E04D1012C55
:1040400008BF012F00F0C0800022CAF8382087F096
:1040500001038EF00102324342EA09021A4380F062
:1040600001031A43B2FA82F24FEA52194BEA0403EF
:1040700087F00102012F43EA070B42EA0302BBFA71
:104080008BF5B2FA82F24FEA55154FEA521202EA64
:10409000010205EA0105CAE90F92CAF8445004D1A9
:1040A000012E08BF54EA0E0213D00022CAF848209D
:1040B000621EB2FA82F2520908EA0203B7FA87F2E4
:1040C000520903EA0204B0FA80F2520902EA040E2D
:1040D0000AE0621ECAF8481000244FF0000EB2FA3F
:1040E00082F2520908EA020340EA0B02B0FA80F0B9
:1040F000DDE9025703EA0C030C40424E4009B2FAD4
:1041000082F21940054007401840CAE913E05209FD
:104110000AF15400B0C0CAE91852CAF868103068F1
:1041200040B1FFF75DF90020306037A1052230482B
:10413000FEF7ECFDDAF8040068B9DAF80810052992
:1041400009DB0120CAF804002B4905222848FEF7A4
:10415000DDFDDAF80400C8B1012040F2DC514FF473
:10416000FA622B4CA047022040F2DC514FF4FA6275
:10417000A047032040F2DC514FF4FA62A04704202C
:1041800040F2DC514FF4FA62A047E0E6FCF778FE1B
:104190000AF1280207CA0843104325D10AF1340462
:1041A0001FCC08431043184320431DD10AF14C048F
:1041B0001FCC084310431843204315D1DAF8680098
:1041C00038B1FFF7EBF90FE0CAF838104FF00009EB
:1041D0004CE7DAF8640038B1DAF808000130CAF8C0
:1041E00008006420FCF74CFF0120FCF749FFAEE615
:1041F000B0010024200000240A44000800040258F2
:104200001D120008140000245354410A000000004D
:10421000F52F000870B50A2A0A4609D120B1B0F17D
:10422000FF3F09DD0A460CE00A46302002F8010B88
:1042300000201070084670BD0A4640422D2302F847
:10424000013B002542F210730A24002BF0D090FBB2
:10425000F3F6354307D006F1300506FB130002F8EC
:10426000015B012500E00025B3FBF4F3EDE700005E
:104270000FB4054B10B503A9044A029800F01EF8CC
:1042800010BC5DF814FB0000E13E000800000024B3
:1042900002E008C8121F08C1002AFAD1704770470F
:1042A000002001E001C1121F002AFBD17047303805
:1042B0000A2801D201207047002070472DE9F84FED
:1042C0009946924688460546002706E025280AD0EA
:1042D00051464A4690476D1C7F1C28780028F5D12E
:1042E0003846BDE8F88F002315F8011F18462E291F
:1042F00015D115F8011F04232A290DD06FF02F02C4
:104300002978A1F13004092C09D800EB800002EBD8
:10431000400008446D1CF3E758F8040B6D1C2A7824
:10432000002ADDD0632A07D0732A0FD010465146E9
:104330004A4690477F1C2AE018F8042B8DF800208D
:1043400000218DF801106E46012103E058F8046B3E
:104350004FF0FF315A074FF0000401D409E0641C0C
:1043600084420BDA8C42FADB325D002AF7D105E099
:10437000641C8C42FCDB305D0028F9D1274404E04A
:1043800016F8010B51464A469047641EF8D26D1C40
:10439000A3E7DDDDDDDDDCBBBBDDDDDDDDDDDDDDC2
:1043A000DDDD988888888888888877777777778828
:1043B000888885555556666666666666666666686A
:1043C0008888833333322222222222222222222868
:1043D000888D0000000001020304010203040607A7
:1043E0000809010002000400060008000A000C0091
:1043F00010002000400080000001010101030701BE
:1044000000000804020408010101454E440A0000AE
:104410003044000800000024200000009042000802
:10442000504400082000002420060000A04200089C
:104430000000000001000000100000000090D00308
:104440000090D003010000000A00000000000000FE
:040000050800029954
:00000001FF
